{
  "contractName": "Crowdsale",
  "abi": [
    {
      "constant": true,
      "inputs": [],
      "name": "rate",
      "outputs": [
        {
          "name": "",
          "type": "uint256"
        }
      ],
      "payable": false,
      "stateMutability": "view",
      "type": "function"
    },
    {
      "constant": true,
      "inputs": [],
      "name": "token",
      "outputs": [
        {
          "name": "",
          "type": "address"
        }
      ],
      "payable": false,
      "stateMutability": "view",
      "type": "function"
    },
    {
      "inputs": [
        {
          "name": "_token",
          "type": "address"
        }
      ],
      "payable": false,
      "stateMutability": "nonpayable",
      "type": "constructor"
    },
    {
      "payable": true,
      "stateMutability": "payable",
      "type": "fallback"
    },
    {
      "anonymous": false,
      "inputs": [
        {
          "indexed": false,
          "name": "recipient",
          "type": "address"
        },
        {
          "indexed": false,
          "name": "numPaid",
          "type": "uint256"
        },
        {
          "indexed": false,
          "name": "numTokensPurchased",
          "type": "uint256"
        }
      ],
      "name": "TokenPurchase",
      "type": "event"
    },
    {
      "constant": false,
      "inputs": [],
      "name": "buyTokens",
      "outputs": [],
      "payable": true,
      "stateMutability": "payable",
      "type": "function"
    },
    {
      "constant": true,
      "inputs": [
        {
          "name": "weiVal",
          "type": "uint256"
        }
      ],
      "name": "_getTokenAmount",
      "outputs": [
        {
          "name": "h",
          "type": "uint256"
        }
      ],
      "payable": false,
      "stateMutability": "view",
      "type": "function"
    },
    {
      "constant": true,
      "inputs": [],
      "name": "test",
      "outputs": [
        {
          "name": "f",
          "type": "uint256"
        }
      ],
      "payable": false,
      "stateMutability": "view",
      "type": "function"
    },
    {
      "constant": false,
      "inputs": [],
      "name": "pause",
      "outputs": [],
      "payable": true,
      "stateMutability": "payable",
      "type": "function"
    },
    {
      "constant": false,
      "inputs": [],
      "name": "start",
      "outputs": [],
      "payable": true,
      "stateMutability": "payable",
      "type": "function"
    },
    {
      "constant": false,
      "inputs": [
        {
          "name": "_rate",
          "type": "uint256"
        }
      ],
      "name": "setRate",
      "outputs": [],
      "payable": true,
      "stateMutability": "payable",
      "type": "function"
    }
  ],
  "bytecode": "0x608060405234801561001057600080fd5b506040516020806105658339810180604052602081101561003057600080fd5b505160008054600160a060020a03199081163390811790925560646003556004805460ff191660019081179091558054600160a060020a0390941693821693909317909255600280549092161790556104d78061008e6000396000f3fe60806040526004361061008d5763ffffffff7c01000000000000000000000000000000000000000000000000000000006000350416632c4e722e811461009757806334fcf437146100be5780637a99bb0a146100db5780638456cb5914610105578063be9a65551461010d578063d0febe4c1461008d578063f8a8fd6d14610115578063fc0c546a1461012a575b610095610168565b005b3480156100a357600080fd5b506100ac61035a565b60408051918252519081900360200190f35b610095600480360360208110156100d457600080fd5b5035610360565b3480156100e757600080fd5b506100ac600480360360208110156100fe57600080fd5b5035610389565b610095610390565b6100956103c0565b34801561012157600080fd5b506100ac6103f3565b34801561013657600080fd5b5061013f61048f565b6040805173ffffffffffffffffffffffffffffffffffffffff9092168252519081900360200190f35b60003411801561017f575060045460ff1615156001145b151561018a57600080fd5b600061019534610389565b600154604080516000602091820181905282517f70a082310000000000000000000000000000000000000000000000000000000081523060048201529251949550859473ffffffffffffffffffffffffffffffffffffffff909416936370a082319360248082019493918390030190829087803b15801561021557600080fd5b5060325a03f115801561022757600080fd5b50506040519150602090505051101561023f57600080fd5b600154604080516000602091820181905282517fa9059cbb00000000000000000000000000000000000000000000000000000000815233600482015260248101869052925173ffffffffffffffffffffffffffffffffffffffff9094169363a9059cbb9360448082019493918390030190829087803b1580156102c157600080fd5b5060325a03f11580156102d357600080fd5b505060405160025473ffffffffffffffffffffffffffffffffffffffff1692503480156108fc029250906000818181858888f1935050505015801561031757600080fd5b506040805133815234602082015280820183905290517fcd60aa75dea3072fbc07ae6d7d856b5dc5f4eee88854f5b4abf7b680ef8bc50f9181900360600190a150565b60035481565b60005473ffffffffffffffffffffffffffffffffffffffff16331461038457600080fd5b600355565b6003540290565b60005473ffffffffffffffffffffffffffffffffffffffff1633146103b457600080fd5b6004805460ff19169055565b60005473ffffffffffffffffffffffffffffffffffffffff1633146103e457600080fd5b6004805460ff19166001179055565b600154604080516000602091820181905282517f70a0823100000000000000000000000000000000000000000000000000000000815230600482015292519093849373ffffffffffffffffffffffffffffffffffffffff909116926370a082319260248084019382900301818787803b15801561046f57600080fd5b5060325a03f115801561048157600080fd5b505060405151949350505050565b60015473ffffffffffffffffffffffffffffffffffffffff168156fea165627a7a723058203e1c8618ec8bca1a5ac5a53350a22ffd2ee4317d5f8955663753be48be47dc450029",
  "source": "pragma solidity ^0.5.0;\nimport './Token.sol';\nimport './Owned.sol';\n\ncontract Crowdsale is Owned{\n    //using SafeMath for uint256;\n\n    constructor(Token _token) public {\n        rate = 100;\n        on = true;\n        token = Token(_token);\n        wallet = msg.sender;\n    }\n    // Token contract address \n //   address ad = 0xBd7a60F479482088c4C16c1e95285a6D885C7698;\n    Token public token;\n    address payable wallet;\n    uint public rate;\n    bool on;\n\n    event TokenPurchase(address recipient, uint numPaid, uint numTokensPurchased);\n\n    function buyTokens() public payable {\n        // Define a uint256 variable that is equal to the number of wei sent with the message.\n        //require(msg.sender != address(0));\n        require(msg.value > 0 && on == true);\n        uint tokenAmount = _getTokenAmount(msg.value);\n        require(token.balanceOf(address(this)) >= tokenAmount);\n        token.transfer(msg.sender, tokenAmount);\n        wallet.transfer(msg.value);\n        emit TokenPurchase( msg.sender, msg.value, tokenAmount);\n    }\n    \n    function () external payable{\n        buyTokens();\n        //test();\n    }\n\n\n    function _getTokenAmount(uint weiVal) public view returns (uint h) {\n        uint h = weiVal * rate;\n        return h;\n    }\n\n  //  function withdraw(){\n//        address(this) address(wallet), address(this).balance);m,,m\n    //    uint GAS_LIMIT = 4000000;\n    //    wallet.call.value(address(this).balance).gas(GAS_LIMIT)(\"\");\n    //    wallet.transfer(address(this).balance);\n    //}\n\n    function test() public view returns(uint f){\n        uint f = token.balanceOf(address(this));\n        return f;\n    }\n\n// onlyOwoner\n    function pause()public payable onlyOwner{\n        on = false;\n    }\n\n// onlyOwner\n    function start() public payable onlyOwner{\n        on = true;\n    }\n\n    function setRate(uint _rate) public payable onlyOwner{\n        rate =  _rate;\n    }\n}",
  "sourcePath": "/home/a/Documents/d/dapp1/mainDapp/contracts/Crowdsale.sol",
  "compiler": {
    "name": "solc",
    "version": "0.5.0+commit.1d4f565a.Emscripten.clang"
  },
  "schemaVersion": "3.2.0",
  "updatedAt": "2020-07-24T00:10:34.663Z",
  "networkType": "ethereum",
  "devdoc": {
    "methods": {}
  },
  "userdoc": {
    "methods": {}
  }
}