{
  "contractName": "Incidents",
  "abi": [
    {
      "constant": true,
      "inputs": [],
      "name": "name",
      "outputs": [
        {
          "name": "",
          "type": "string"
        }
      ],
      "payable": false,
      "stateMutability": "view",
      "type": "function"
    },
    {
      "constant": false,
      "inputs": [
        {
          "name": "spender",
          "type": "address"
        },
        {
          "name": "tokens",
          "type": "uint256"
        }
      ],
      "name": "approve",
      "outputs": [
        {
          "name": "success",
          "type": "bool"
        }
      ],
      "payable": false,
      "stateMutability": "nonpayable",
      "type": "function"
    },
    {
      "constant": true,
      "inputs": [],
      "name": "totalSupply",
      "outputs": [
        {
          "name": "",
          "type": "uint256"
        }
      ],
      "payable": false,
      "stateMutability": "view",
      "type": "function"
    },
    {
      "constant": false,
      "inputs": [
        {
          "name": "from",
          "type": "address"
        },
        {
          "name": "to",
          "type": "address"
        },
        {
          "name": "tokens",
          "type": "uint256"
        }
      ],
      "name": "transferFrom",
      "outputs": [
        {
          "name": "success",
          "type": "bool"
        }
      ],
      "payable": false,
      "stateMutability": "nonpayable",
      "type": "function"
    },
    {
      "constant": true,
      "inputs": [],
      "name": "INITIAL_SUPPLY",
      "outputs": [
        {
          "name": "",
          "type": "uint256"
        }
      ],
      "payable": false,
      "stateMutability": "view",
      "type": "function"
    },
    {
      "constant": true,
      "inputs": [],
      "name": "decimals",
      "outputs": [
        {
          "name": "",
          "type": "uint256"
        }
      ],
      "payable": false,
      "stateMutability": "view",
      "type": "function"
    },
    {
      "constant": true,
      "inputs": [],
      "name": "_decimals",
      "outputs": [
        {
          "name": "",
          "type": "uint256"
        }
      ],
      "payable": false,
      "stateMutability": "view",
      "type": "function"
    },
    {
      "constant": true,
      "inputs": [],
      "name": "_totalSupply",
      "outputs": [
        {
          "name": "",
          "type": "uint256"
        }
      ],
      "payable": false,
      "stateMutability": "view",
      "type": "function"
    },
    {
      "constant": false,
      "inputs": [
        {
          "name": "_to",
          "type": "address"
        },
        {
          "name": "am",
          "type": "uint256"
        }
      ],
      "name": "mint",
      "outputs": [
        {
          "name": "success",
          "type": "bool"
        }
      ],
      "payable": false,
      "stateMutability": "nonpayable",
      "type": "function"
    },
    {
      "constant": false,
      "inputs": [
        {
          "name": "_value",
          "type": "uint256"
        }
      ],
      "name": "burn",
      "outputs": [
        {
          "name": "success",
          "type": "bool"
        }
      ],
      "payable": false,
      "stateMutability": "nonpayable",
      "type": "function"
    },
    {
      "constant": true,
      "inputs": [
        {
          "name": "tokenOwner",
          "type": "address"
        }
      ],
      "name": "balanceOf",
      "outputs": [
        {
          "name": "balance",
          "type": "uint256"
        }
      ],
      "payable": false,
      "stateMutability": "view",
      "type": "function"
    },
    {
      "constant": true,
      "inputs": [
        {
          "name": "",
          "type": "address"
        }
      ],
      "name": "usersLeftRepTo",
      "outputs": [
        {
          "name": "user",
          "type": "address"
        },
        {
          "name": "message",
          "type": "string"
        },
        {
          "name": "amount",
          "type": "uint256"
        }
      ],
      "payable": false,
      "stateMutability": "view",
      "type": "function"
    },
    {
      "constant": false,
      "inputs": [
        {
          "name": "_from",
          "type": "address"
        },
        {
          "name": "_value",
          "type": "uint256"
        }
      ],
      "name": "burnFrom",
      "outputs": [
        {
          "name": "success",
          "type": "bool"
        }
      ],
      "payable": false,
      "stateMutability": "nonpayable",
      "type": "function"
    },
    {
      "constant": true,
      "inputs": [],
      "name": "incidentsAmount",
      "outputs": [
        {
          "name": "",
          "type": "uint256"
        }
      ],
      "payable": false,
      "stateMutability": "view",
      "type": "function"
    },
    {
      "constant": true,
      "inputs": [],
      "name": "owner",
      "outputs": [
        {
          "name": "",
          "type": "address"
        }
      ],
      "payable": false,
      "stateMutability": "view",
      "type": "function"
    },
    {
      "constant": true,
      "inputs": [],
      "name": "symbol",
      "outputs": [
        {
          "name": "",
          "type": "string"
        }
      ],
      "payable": false,
      "stateMutability": "view",
      "type": "function"
    },
    {
      "constant": false,
      "inputs": [
        {
          "name": "to",
          "type": "address"
        },
        {
          "name": "tokens",
          "type": "uint256"
        }
      ],
      "name": "transfer",
      "outputs": [
        {
          "name": "success",
          "type": "bool"
        }
      ],
      "payable": false,
      "stateMutability": "nonpayable",
      "type": "function"
    },
    {
      "constant": true,
      "inputs": [],
      "name": "_symbol",
      "outputs": [
        {
          "name": "",
          "type": "string"
        }
      ],
      "payable": false,
      "stateMutability": "view",
      "type": "function"
    },
    {
      "constant": true,
      "inputs": [],
      "name": "_name",
      "outputs": [
        {
          "name": "",
          "type": "string"
        }
      ],
      "payable": false,
      "stateMutability": "view",
      "type": "function"
    },
    {
      "constant": true,
      "inputs": [
        {
          "name": "tokenOwner",
          "type": "address"
        },
        {
          "name": "spender",
          "type": "address"
        }
      ],
      "name": "allowance",
      "outputs": [
        {
          "name": "remaining",
          "type": "uint256"
        }
      ],
      "payable": false,
      "stateMutability": "view",
      "type": "function"
    },
    {
      "anonymous": false,
      "inputs": [
        {
          "indexed": false,
          "name": "incidentID",
          "type": "uint256"
        },
        {
          "indexed": false,
          "name": "location",
          "type": "string"
        }
      ],
      "name": "incidentReported",
      "type": "event"
    },
    {
      "anonymous": false,
      "inputs": [
        {
          "indexed": false,
          "name": "incidentID",
          "type": "uint256"
        }
      ],
      "name": "incidentVerified",
      "type": "event"
    },
    {
      "anonymous": false,
      "inputs": [
        {
          "indexed": false,
          "name": "",
          "type": "address"
        }
      ],
      "name": "voted",
      "type": "event"
    },
    {
      "anonymous": false,
      "inputs": [
        {
          "indexed": false,
          "name": "",
          "type": "address"
        }
      ],
      "name": "promoted",
      "type": "event"
    },
    {
      "anonymous": false,
      "inputs": [
        {
          "indexed": true,
          "name": "from",
          "type": "address"
        },
        {
          "indexed": true,
          "name": "to",
          "type": "address"
        },
        {
          "indexed": false,
          "name": "tokens",
          "type": "uint256"
        }
      ],
      "name": "Transfer",
      "type": "event"
    },
    {
      "anonymous": false,
      "inputs": [
        {
          "indexed": true,
          "name": "tokenOwner",
          "type": "address"
        },
        {
          "indexed": true,
          "name": "spender",
          "type": "address"
        },
        {
          "indexed": false,
          "name": "tokens",
          "type": "uint256"
        }
      ],
      "name": "Approval",
      "type": "event"
    },
    {
      "constant": false,
      "inputs": [
        {
          "name": "_verifier",
          "type": "address"
        }
      ],
      "name": "createVerifier",
      "outputs": [],
      "payable": false,
      "stateMutability": "nonpayable",
      "type": "function"
    },
    {
      "constant": false,
      "inputs": [
        {
          "name": "_evidence",
          "type": "string"
        },
        {
          "name": "_image",
          "type": "bool"
        },
        {
          "name": "_incidentID",
          "type": "uint256"
        }
      ],
      "name": "addEvidence",
      "outputs": [],
      "payable": true,
      "stateMutability": "payable",
      "type": "function"
    },
    {
      "constant": false,
      "inputs": [
        {
          "name": "_description",
          "type": "string"
        },
        {
          "name": "_longitude",
          "type": "string"
        },
        {
          "name": "_latitude",
          "type": "string"
        },
        {
          "name": "_time",
          "type": "uint256"
        }
      ],
      "name": "setBeacon",
      "outputs": [],
      "payable": true,
      "stateMutability": "payable",
      "type": "function"
    },
    {
      "constant": true,
      "inputs": [
        {
          "name": "id",
          "type": "uint256"
        }
      ],
      "name": "getBeacon",
      "outputs": [
        {
          "name": "description",
          "type": "string"
        },
        {
          "name": "lng",
          "type": "string"
        },
        {
          "name": "lat",
          "type": "string"
        }
      ],
      "payable": false,
      "stateMutability": "view",
      "type": "function"
    },
    {
      "constant": false,
      "inputs": [],
      "name": "addAmount",
      "outputs": [],
      "payable": true,
      "stateMutability": "payable",
      "type": "function"
    },
    {
      "constant": true,
      "inputs": [],
      "name": "getIncidentAmount",
      "outputs": [
        {
          "name": "",
          "type": "uint256"
        }
      ],
      "payable": false,
      "stateMutability": "view",
      "type": "function"
    },
    {
      "constant": false,
      "inputs": [
        {
          "name": "_description",
          "type": "string"
        },
        {
          "name": "_willTestify",
          "type": "bool"
        },
        {
          "name": "_incidentID",
          "type": "uint256"
        }
      ],
      "name": "createWitnessReport",
      "outputs": [],
      "payable": true,
      "stateMutability": "payable",
      "type": "function"
    },
    {
      "constant": false,
      "inputs": [
        {
          "name": "_incidentID",
          "type": "uint256"
        },
        {
          "name": "_verdict",
          "type": "bool"
        },
        {
          "name": "_description",
          "type": "string"
        }
      ],
      "name": "verifyIncident",
      "outputs": [],
      "payable": true,
      "stateMutability": "payable",
      "type": "function"
    },
    {
      "constant": false,
      "inputs": [
        {
          "name": "_incidentID",
          "type": "uint256"
        }
      ],
      "name": "payoutRep",
      "outputs": [],
      "payable": true,
      "stateMutability": "payable",
      "type": "function"
    },
    {
      "constant": false,
      "inputs": [
        {
          "name": "_amount",
          "type": "uint256"
        }
      ],
      "name": "buyRep",
      "outputs": [],
      "payable": true,
      "stateMutability": "payable",
      "type": "function"
    },
    {
      "constant": false,
      "inputs": [
        {
          "name": "_user",
          "type": "address"
        },
        {
          "name": "_amount",
          "type": "uint256"
        },
        {
          "name": "_message",
          "type": "string"
        }
      ],
      "name": "giveRep",
      "outputs": [],
      "payable": true,
      "stateMutability": "payable",
      "type": "function"
    },
    {
      "constant": false,
      "inputs": [
        {
          "name": "_user",
          "type": "address"
        },
        {
          "name": "_amount",
          "type": "uint256"
        },
        {
          "name": "_message",
          "type": "string"
        }
      ],
      "name": "negRep",
      "outputs": [],
      "payable": true,
      "stateMutability": "payable",
      "type": "function"
    },
    {
      "constant": false,
      "inputs": [
        {
          "name": "_name",
          "type": "string"
        },
        {
          "name": "_description",
          "type": "string"
        },
        {
          "name": "_location",
          "type": "string"
        }
      ],
      "name": "createAccount",
      "outputs": [],
      "payable": true,
      "stateMutability": "payable",
      "type": "function"
    },
    {
      "constant": true,
      "inputs": [],
      "name": "myProfile",
      "outputs": [
        {
          "name": "name",
          "type": "string"
        },
        {
          "name": "description",
          "type": "string"
        },
        {
          "name": "location",
          "type": "string"
        },
        {
          "name": "add",
          "type": "address"
        }
      ],
      "payable": false,
      "stateMutability": "view",
      "type": "function"
    },
    {
      "constant": false,
      "inputs": [
        {
          "name": "_user",
          "type": "address"
        }
      ],
      "name": "levelUp",
      "outputs": [],
      "payable": true,
      "stateMutability": "payable",
      "type": "function"
    },
    {
      "constant": false,
      "inputs": [
        {
          "name": "_user",
          "type": "address"
        }
      ],
      "name": "promote",
      "outputs": [],
      "payable": true,
      "stateMutability": "payable",
      "type": "function"
    }
  ],
  "bytecode": "0x60008054600160a060020a0319163317905560c0604052601a60808190527f536f6369616c20446566656e636520466f72636520546f6b656e00000000000060a090815262000052916002919062000111565b506040805180820190915260048082527f53444654000000000000000000000000000000000000000000000000000000006020909201918252620000999160019162000111565b50601260035569d3c21bcecceda10000006005819055600481905560008054600160a060020a0390811682526006602090815260408084208590558354815195865290519216937fddf252ad1be2c89b69c2b068fc378daa952ba7f163c4a11628f55a4df523b3ef929081900390910190a3620001b6565b828054600181600116156101000203166002900490600052602060002090601f016020900481019282601f106200015457805160ff191683800117855562000184565b8280016001018555821562000184579182015b828111156200018457825182559160200191906001019062000167565b506200019292915062000196565b5090565b620001b391905b808211156200019257600081556001016200019d565b90565b61243480620001c66000396000f3fe6080604052600436106101c15763ffffffff7c010000000000000000000000000000000000000000000000000000000060003504166306fdde0381146101c6578063095ea7b31461025057806318160ddd1461029d5780631e2bd532146102c45780632089cb18146102f957806323b872dd146103165780632ff2e9dc14610359578063313ce5671461036e57806332424aa314610383578063350c2be21461039857806339641b12146105005780633eaaf86b1461051d57806340c10f191461053257806342966c681461056b57806350831b1d146105955780635321a0fe14610650578063544b69c0146106fd57806370a08231146107b157806378554ba9146107e457806379cc6790146108a55780637c713c93146108de5780638da5cb5b146108f357806390caecc21461092457806395d89b4114610a9257806397380f7814610aa7578063a6f5de1014610b62578063a9059cbb14610c0f578063b09f126614610c48578063b441e1f314610c5d578063b9c1457714610e13578063bc53c0c414610e1b578063c24d677614610fcf578063d0e0813a14610fe4578063d28d88521461100a578063dd62ed3e1461101f578063e18b551c1461105a575b600080fd5b3480156101d257600080fd5b506101db611080565b6040805160208082528351818301528351919283929083019185019080838360005b838110156102155781810151838201526020016101fd565b50505050905090810190601f1680156102425780820380516001836020036101000a031916815260200191505b509250505060405180910390f35b34801561025c57600080fd5b506102896004803603604081101561027357600080fd5b50600160a060020a038135169060200135611114565b604080519115158252519081900360200190f35b3480156102a957600080fd5b506102b261117b565b60408051918252519081900360200190f35b3480156102d057600080fd5b506102f7600480360360208110156102e757600080fd5b5035600160a060020a0316611181565b005b6102f76004803603602081101561030f57600080fd5b50356111b7565b34801561032257600080fd5b506102896004803603606081101561033957600080fd5b50600160a060020a038135811691602081013590911690604001356112bb565b34801561036557600080fd5b506102b26113c6565b34801561037a57600080fd5b506102b26113cc565b34801561038f57600080fd5b506102b26113d2565b3480156103a457600080fd5b506103ad6113d8565b60408051600160a060020a0383166060820152608080825286519082015285519091829160208084019284019160a08501918a019080838360005b838110156104005781810151838201526020016103e8565b50505050905090810190601f16801561042d5780820380516001836020036101000a031916815260200191505b50848103835287518152875160209182019189019080838360005b83811015610460578181015183820152602001610448565b50505050905090810190601f16801561048d5780820380516001836020036101000a031916815260200191505b50848103825286518152865160209182019188019080838360005b838110156104c05781810151838201526020016104a8565b50505050905090810190601f1680156104ed5780820380516001836020036101000a031916815260200191505b5097505050505050505060405180910390f35b6102f76004803603602081101561051657600080fd5b50356115fa565b34801561052957600080fd5b506102b2611642565b34801561053e57600080fd5b506102896004803603604081101561055557600080fd5b50600160a060020a038135169060200135611648565b34801561057757600080fd5b506102896004803603602081101561058e57600080fd5b50356116d2565b6102f7600480360360608110156105ab57600080fd5b600160a060020a03823516916020810135918101906060810160408201356401000000008111156105db57600080fd5b8201836020820111156105ed57600080fd5b8035906020019184600183028401116401000000008311171561060f57600080fd5b91908080601f016020809104026020016040519081016040528093929190818152602001838380828437600092019190915250929550611714945050505050565b6102f76004803603606081101561066657600080fd5b81019060208101813564010000000081111561068157600080fd5b82018360208201111561069357600080fd5b803590602001918460018302840111640100000000831117156106b557600080fd5b91908080601f016020809104026020016040519081016040528093929190818152602001838380828437600092019190915250929550505050803515159150602001356117df565b6102f76004803603606081101561071357600080fd5b813591602081013515159181019060608101604082013564010000000081111561073c57600080fd5b82018360208201111561074e57600080fd5b8035906020019184600183028401116401000000008311171561077057600080fd5b91908080601f016020809104026020016040519081016040528093929190818152602001838380828437600092019190915250929550611823945050505050565b3480156107bd57600080fd5b506102b2600480360360208110156107d457600080fd5b5035600160a060020a03166119a1565b3480156107f057600080fd5b506108176004803603602081101561080757600080fd5b5035600160a060020a03166119bc565b60408051600160a060020a0385168152908101829052606060208083018281528551928401929092528451608084019186019080838360005b83811015610868578181015183820152602001610850565b50505050905090810190601f1680156108955780820380516001836020036101000a031916815260200191505b5094505050505060405180910390f35b3480156108b157600080fd5b50610289600480360360408110156108c857600080fd5b50600160a060020a038135169060200135611a76565b3480156108ea57600080fd5b506102b2611ae2565b3480156108ff57600080fd5b50610908611ae8565b60408051600160a060020a039092168252519081900360200190f35b34801561093057600080fd5b5061094e6004803603602081101561094757600080fd5b5035611af7565b60405180806020018060200180602001848103845287818151815260200191508051906020019080838360005b8381101561099357818101518382015260200161097b565b50505050905090810190601f1680156109c05780820380516001836020036101000a031916815260200191505b50848103835286518152865160209182019188019080838360005b838110156109f35781810151838201526020016109db565b50505050905090810190601f168015610a205780820380516001836020036101000a031916815260200191505b50848103825285518152855160209182019187019080838360005b83811015610a53578181015183820152602001610a3b565b50505050905090810190601f168015610a805780820380516001836020036101000a031916815260200191505b50965050505050505060405180910390f35b348015610a9e57600080fd5b506101db611ceb565b6102f760048036036060811015610abd57600080fd5b600160a060020a0382351691602081013591810190606081016040820135640100000000811115610aed57600080fd5b820183602082011115610aff57600080fd5b80359060200191846001830284011164010000000083111715610b2157600080fd5b91908080601f016020809104026020016040519081016040528093929190818152602001838380828437600092019190915250929550611d4b945050505050565b6102f760048036036060811015610b7857600080fd5b810190602081018135640100000000811115610b9357600080fd5b820183602082011115610ba557600080fd5b80359060200191846001830284011164010000000083111715610bc757600080fd5b91908080601f01602080910402602001604051908101604052809392919081815260200183838082843760009201919091525092955050505080351515915060200135611df7565b348015610c1b57600080fd5b5061028960048036036040811015610c3257600080fd5b50600160a060020a038135169060200135611e93565b348015610c5457600080fd5b506101db611f43565b6102f760048036036080811015610c7357600080fd5b810190602081018135640100000000811115610c8e57600080fd5b820183602082011115610ca057600080fd5b80359060200191846001830284011164010000000083111715610cc257600080fd5b91908080601f0160208091040260200160405190810160405280939291908181526020018383808284376000920191909152509295949360208101935035915050640100000000811115610d1557600080fd5b820183602082011115610d2757600080fd5b80359060200191846001830284011164010000000083111715610d4957600080fd5b91908080601f0160208091040260200160405190810160405280939291908181526020018383808284376000920191909152509295949360208101935035915050640100000000811115610d9c57600080fd5b820183602082011115610dae57600080fd5b80359060200191846001830284011164010000000083111715610dd057600080fd5b91908080601f0160208091040260200160405190810160405280939291908181526020018383808284376000920191909152509295505091359250611fd0915050565b6102f761205d565b6102f760048036036060811015610e3157600080fd5b810190602081018135640100000000811115610e4c57600080fd5b820183602082011115610e5e57600080fd5b80359060200191846001830284011164010000000083111715610e8057600080fd5b91908080601f0160208091040260200160405190810160405280939291908181526020018383808284376000920191909152509295949360208101935035915050640100000000811115610ed357600080fd5b820183602082011115610ee557600080fd5b80359060200191846001830284011164010000000083111715610f0757600080fd5b91908080601f0160208091040260200160405190810160405280939291908181526020018383808284376000920191909152509295949360208101935035915050640100000000811115610f5a57600080fd5b820183602082011115610f6c57600080fd5b80359060200191846001830284011164010000000083111715610f8e57600080fd5b91908080601f016020809104026020016040519081016040528093929190818152602001838380828437600092019190915250929550612068945050505050565b348015610fdb57600080fd5b506102b26120e8565b6102f760048036036020811015610ffa57600080fd5b5035600160a060020a03166120ee565b34801561101657600080fd5b506101db61220b565b34801561102b57600080fd5b506102b26004803603604081101561104257600080fd5b50600160a060020a0381358116916020013516612263565b6102f76004803603602081101561107057600080fd5b5035600160a060020a031661228e565b60028054604080516020601f60001961010060018716150201909416859004938401819004810282018101909252828152606093909290918301828280156111095780601f106110de57610100808354040283529160200191611109565b820191906000526020600020905b8154815290600101906020018083116110ec57829003601f168201915b505050505090505b90565b336000818152600760209081526040808320600160a060020a038716808552908352818420869055815186815291519394909390927f8c5be1e5ebec7d5bd14f71427d1e84f3dd0314c0f7b2291e5b200ac8c7c3b925928290030190a35060015b92915050565b60045490565b336000908152600e60205260409020600301546007908111156111a357600080fd5b50600160a060020a0316600052600d602052565b6000818152600b6020526040902060018082015460ff161515146111da57600080fd5b60078101546000906111f390600463ffffffff6122da16565b905060005b60078301548110156112b5576000600e6000856007018481548110151561121b57fe5b6000918252602080832090910154600160a060020a031683528201929092526040019020600a015490508282116112635761125d81600463ffffffff6122fb16565b506112ac565b60028302821161127e5761125d81600363ffffffff6122fb16565b6003830282116112995761125d81600263ffffffff6122fb16565b6112aa81600163ffffffff6122fb16565b505b506001016111f8565b50505050565b600160a060020a0383166000908152600660205260408120546112e4908363ffffffff61230b16565b600160a060020a0385166000908152600660209081526040808320939093556007815282822033835290522054611321908363ffffffff61230b16565b600160a060020a038086166000908152600760209081526040808320338452825280832094909455918616815260069091522054611365908363ffffffff6122fb16565b600160a060020a0380851660008181526006602090815260409182902094909455805186815290519193928816927fddf252ad1be2c89b69c2b068fc378daa952ba7f163c4a11628f55a4df523b3ef92918290030190a35060019392505050565b60055481565b60035490565b60035481565b606080606060006060600e600033600160a060020a0316600160a060020a031681526020019081526020016000206001018054600181600116156101000203166002900480601f01602080910402602001604051908101604052809291908181526020018280546001816001161561010002031660029004801561149d5780601f106114725761010080835404028352916020019161149d565b820191906000526020600020905b81548152906001019060200180831161148057829003601f168201915b5050336000908152600e60209081526040918290206002908101805484516001821615610100026000190190911692909204601f810184900484028301840190945283825296975060609690955093509091508301828280156115415780601f1061151657610100808354040283529160200191611541565b820191906000526020600020905b81548152906001019060200180831161152457829003601f168201915b5050336000908152600e60209081526040918290206005018054835160026001831615610100026000190190921691909104601f8101849004840282018401909452838152969750606096955093509091508301828280156115e45780601f106115b9576101008083540402835291602001916115e4565b820191906000526020600020905b8154815290600101906020018083116115c757829003601f168201915b50969b959a509298503397509395505050505050565b600061160d82600363ffffffff61232016565b336000908152600e6020526040902060070154909150611633908263ffffffff6122fb16565b5061163d826116d2565b505050565b60045481565b60008054600160a060020a0316331461166057600080fd5b60035460048054600a9290920a84029182019055600160a060020a0384166000818152600660209081526040918290208054870190558151848152915130927fddf252ad1be2c89b69c2b068fc378daa952ba7f163c4a11628f55a4df523b3ef92908290030190a35060019392505050565b336000908152600660205260408120548211156116ee57600080fd5b503360009081526006602052604090208054829003905560048054919091039055600190565b336000908152600e6020526040808220600160a060020a038616835291206007820154600690920191841180159061174d575060038411155b801561176b5750336000908152600c8201602052604090205460ff16155b151561177657600080fd5b61177e612345565b33808252602080830186905260408084018890526000928352600c85019091529020805460ff19166001179055600a8201546117c0908663ffffffff61230b16565b5060018301546117d6908663ffffffff61230b16565b50505050505050565b6000818152600b602090815260408083203384526009018252909120805460ff19168415151781558451909161181c916001840191870190612370565b5050505050565b336000908152600d602052604090205460ff16151560011461184457600080fd5b6000838152600b60209081526040808320338452600a810183529220805460ff191685151517815583519091611881916001840191860190612370565b506001841515141561191657600b8201805460018101825560008281526020902001805473ffffffffffffffffffffffffffffffffffffffff191633179055546007116118dd576001828101805460ff19169091179055611911565b6040805133815290517faec2ccae8681fd01ad220ecb7e9b5f7d485b1cc3cc01599acb1578016b30a6bd9181900360200190a15b61181c565b600c8201805460018101825560008281526020902001805473ffffffffffffffffffffffffffffffffffffffff191633179055546007116119675760018201805461ff00191661010017905561181c565b6040805133815290517faec2ccae8681fd01ad220ecb7e9b5f7d485b1cc3cc01599acb1578016b30a6bd9181900360200190a15050505050565b600160a060020a031660009081526006602052604090205490565b600c602090815260009182526040918290208054600180830180548651600261010094831615949094026000190190911692909204601f8101869004860283018601909652858252600160a060020a03909216949293909290830182828015611a665780601f10611a3b57610100808354040283529160200191611a66565b820191906000526020600020905b815481529060010190602001808311611a4957829003601f168201915b5050505050908060020154905083565b600160a060020a038216600090815260066020526040812054821115611a9b57600080fd5b611aa58333612263565b821115611ab157600080fd5b50600160a060020a038216600090815260066020526040902080548290039055600480548290039055600192915050565b60095481565b600854600160a060020a031681565b6000818152600b60209081526040918290206002908101805484516001821615610100026000190190911692909204601f810184900484028301840190945283825260609384938493849390929091830182828015611b975780601f10611b6c57610100808354040283529160200191611b97565b820191906000526020600020905b815481529060010190602001808311611b7a57829003601f168201915b5050506000888152600b60209081526040918290206003018054835160026001831615610100026000190190921691909104601f810184900484028201840190945283815295965060609594509250830182828015611c375780601f10611c0c57610100808354040283529160200191611c37565b820191906000526020600020905b815481529060010190602001808311611c1a57829003601f168201915b5050506000898152600b60209081526040918290206004018054835160026001831615610100026000190190921691909104601f810184900484028201840190945283815295965060609594509250830182828015611cd75780601f10611cac57610100808354040283529160200191611cd7565b820191906000526020600020905b815481529060010190602001808311611cba57829003601f168201915b50969b959a50929850939650505050505050565b60018054604080516020601f600260001961010087891615020190951694909404938401819004810282018101909252828152606093909290918301828280156111095780601f106110de57610100808354040283529160200191611109565b336000908152600e6020526040808220600160a060020a0386168352912060078201546006909201918411801590611d84575060038411155b8015611da25750336000908152600c8201602052604090205460ff16155b1515611dad57600080fd5b611db5612345565b33808252602080830186905260408084018890526000928352600c85019091529020805460ff19166001179055600a8201546117c0908663ffffffff6122fb16565b6000818152600b6020908152604080832033808552600890910183529220805473ffffffffffffffffffffffffffffffffffffffff191690921782558451611e4791600184019190870190612370565b50805492151574010000000000000000000000000000000000000000027fffffffffffffffffffffff00ffffffffffffffffffffffffffffffffffffffff909316929092179091555050565b33600090815260066020526040812054611eb3908363ffffffff61230b16565b3360009081526006602052604080822092909255600160a060020a03851681522054611ee5908363ffffffff6122fb16565b600160a060020a0384166000818152600660209081526040918290209390935580518581529051919233927fddf252ad1be2c89b69c2b068fc378daa952ba7f163c4a11628f55a4df523b3ef9281900390910190a350600192915050565b60018054604080516020600284861615610100026000190190941693909304601f81018490048402820184019092528181529291830182828015611fc85780601f10611f9d57610100808354040283529160200191611fc8565b820191906000526020600020905b815481529060010190602001808311611fab57829003601f168201915b505050505081565b60098054600181019091556000818152600b602090815260408220918255865161200291600284019190890190612370565b5084516120189060038301906020880190612370565b50835161202e9060048301906020870190612370565b50600581019290925550600601805473ffffffffffffffffffffffffffffffffffffffff191633179055505050565b600980546001019055565b336000908152600e60209081526040909120805460ff191660019081178255855161209a939290910191860190612370565b50336000908152600e6020908152604090912083516120c192600290920191850190612370565b50336000908152600e6020908152604090912082516112b592600590920191840190612370565b60095490565b336000908152600e602052604090206003015460069081111561211057600080fd5b336000908152600e60205260409020600301546006141561219e57600160a060020a0382166000908152600e602052604090206003015460041061215c576121578261228e565b612199565b60408051600160a060020a038416815290517f99410fa937577082e4e0f5ac52d2c3645b14e16271626ab8d4834a2b7fd23bf19181900360200190a15b612207565b600160a060020a0382166000908152600e60205260409020600301546004106121ca576121998261228e565b60408051600160a060020a038416815290517f99410fa937577082e4e0f5ac52d2c3645b14e16271626ab8d4834a2b7fd23bf19181900360200190a15b5050565b6002805460408051602060018416156101000260001901909316849004601f81018490048402820184019092528181529291830182828015611fc85780601f10611f9d57610100808354040283529160200191611fc8565b600160a060020a03918216600090815260076020908152604080832093909416825291909152205490565b600160a060020a0381166000908152600e60205260409020600301546122bb90600163ffffffff6122fb16565b600160a060020a039091166000908152600e6020526040902060030155565b60008082116122e857600080fd5b81838115156122f357fe5b049392505050565b8181018281101561117557600080fd5b60008282111561231a57600080fd5b50900390565b81810282158061233a575081838281151561233757fe5b04145b151561117557600080fd5b6060604051908101604052806000600160a060020a0316815260200160608152602001600081525090565b828054600181600116156101000203166002900490600052602060002090601f016020900481019282601f106123b157805160ff19168380011785556123de565b828001600101855582156123de579182015b828111156123de5782518255916020019190600101906123c3565b506123ea9291506123ee565b5090565b61111191905b808211156123ea57600081556001016123f456fea165627a7a72305820ffafbb30d97bfd22dd20301afe655d13d5cce12ac432457223b3b8122694a4690029",
  "source": "pragma solidity ^0.5.0;\nimport \"./Token.sol\";\n//import \"./SafeMath.sol\";\n\n/// todo import safemath from node modules\n\n// Only when an incident is verified is rep released\n\ncontract Incidents is Token {\n//    using SafeMath for uint256;\n    address public owner;\n    uint256 public incidentsAmount;\n\n    struct Profile {\n        bool status;\n        string name;\n        string description;\n        uint256 rank;\n        uint256[] proposals;\n        string location;\n        // ipfs hash for profile pic\n        userRep uRep;\n        uint256 rep;\n        // maybe mappings ?\n        mapping(address => bool) friends;\n        //      users that gave rep to the user\n        mapping(address => bool) leftRep;\n        //      users the user gave rep to\n        mapping(address => bool) gaveRep;\n// this is the percentage of all payments made on time and missed\n        uint payRate;\n    }\n\n    struct userRep {\n        uint256 totalRep;\n        uint256 repToGive;\n        //      users that gave rep to the user\n        rep[] repsLeft;\n        mapping(address => bool) leftRep;\n    }\n\n    struct rep {\n        //      the address of the user that left rep\n        address user;\n        string message;\n        uint256 amount;\n    }\n    //-----------------------------------------------------------------------------------------------------------\n    //-----------------------------------------------------------------------------------------------------------\n\n    struct incidentReport {\n        uint256 incidentID;\n        bool verified;\n        bool fake;\n        string description;\n        //       longitude, latitude\n        string lng;\n        string lat;\n        //       time and date the beacn was sent\n        uint256 time;\n        address beaconSender;\n        address[] responders;\n        //       reportID\n        mapping(address => witnessReport) wReports;\n        //       set as uint so multiple evidence can be submitted\n        //  ipfsHash\n        mapping(address => evidence) evi;\n        mapping(address => verification) verifications;\n        //       first array to get to 5 wins and verifies\n        //       list of verifiers that passed the incident\n        address[] veriPass;\n        //       list of verifiers that failed the incident\n        address[] veriFail;\n        bool repPaid;\n    }\n\n    struct witnessReport {\n        //        Caution users that all info is public\n        address witnessReportID;\n        bool willTestify;\n        //        ???\n        string description;\n    }\n\n    struct evidence {\n        //        true if its an image false if its a video link\n        bool image;\n        //        ipfs hash or video link\n        string evidence;\n    }\n\n    struct verification {\n        //         the verifiers vote on wether the incident was real or not\n        bool verdict;\n        string description;\n    }\n\n    incidentReport[] incidentArray;\n    mapping(uint256 => incidentReport) incidents;\n    mapping(address => rep) public usersLeftRepTo;\n    mapping(address => bool) verifiers;\n    mapping(address => Profile) profiles;\n\n    event incidentReported(uint256 incidentID, string location);\n    event incidentVerified(uint256 incidentID);\n    event voted(address);\n    event promoted(address);\n\n    function createVerifier(address _verifier) external aboveLevel(7) {\n        verifiers[_verifier];\n    }\n\n    function addEvidence(\n        string memory _evidence,\n        bool _image,\n        uint256 _incidentID\n    ) public payable {\n        //       rand is either a random integer generated offchain or index and use a\n        //       counter ??\n        evidence storage e = incidents[_incidentID].evi[msg.sender];\n        e.image = _image;\n        e.evidence = _evidence;\n    }\n\n    function setBeacon(string memory _description, string memory _longitude,\n                       string memory _latitude, uint256 _time) public payable {\n        //       rand is either a random integer generated offchain or index and use a\n        //       counter ??\n        uint256 incidentID = incidentsAmount++;\n        incidentReport storage i = incidents[incidentID];\n        i.incidentID = 0;\n        i.description = _description;\n        i.lng = _longitude;\n        i.lat = _latitude;\n        i.time = _time;\n        i.beaconSender = msg.sender;\n    }\n\n    function getBeacon(uint256 id) public view returns ( string memory description,\n                                   string memory lng, string memory lat){\n        string memory description = incidents[id].description;\n        string memory lng = incidents[id].lng;\n        string memory lat = incidents[id].lat;\n        return (description, lng, lat);\n    }\n\n    function addAmount() public payable {\n        incidentsAmount++;\n    }\n\n    function getIncidentAmount() public view returns (uint256) {\n        return incidentsAmount;\n    }\n\n    function createWitnessReport( string memory _description, bool _willTestify,\n                                  uint256 _incidentID ) public payable {\n        //       rand is either a random integer generated offchain or index and use a\n        //       counter ??\n        witnessReport storage wp = incidents[_incidentID].wReports[msg.sender];\n        wp.witnessReportID = msg.sender;\n        wp.description = _description;\n        wp.willTestify = _willTestify;\n    }\n\n    //\n    function verifyIncident( uint256 _incidentID, bool _verdict, string memory _description\n                           ) public payable {\n        require(verifiers[msg.sender] == true);\n        incidentReport storage v = incidents[_incidentID];\n        verification storage i = incidents[_incidentID].verifications[msg\n            .sender];\n        i.verdict = _verdict;\n        i.description = _description;\n        ///  first to 7 votes wins!!\n        if (_verdict == true) {\n            v.veriPass.push(msg.sender);\n            if (v.veriPass.length >= 7) {\n                v.verified = true;\n            } else {\n                emit voted(msg.sender);\n            }\n        } else {\n            v.veriFail.push(msg.sender);\n            if (v.veriFail.length >= 7) {\n                v.fake = true;\n            } else {\n                emit voted(msg.sender);\n            }\n        }\n    }\n\n    //  pays out the rep for an incident when it has been verified\n    function payoutRep(uint256 _incidentID) public payable {\n        incidentReport storage r = incidents[_incidentID];\n        require(r.verified == true);\n        uint256 quart = r.responders.length.div(4);\n        for (uint256 i = 0; i < r.responders.length; i++) {\n            uint256 reps = profiles[r.responders[i]].rep;\n            if (i <= quart) {\n                reps.add(4);\n            } else if (i <= quart * 2) {\n                reps.add(3);\n            } else if (i <= quart * 3) {\n                reps.add(2);\n            } else {\n                reps.add(1);\n                r.repPaid == true;\n            }\n        }\n    }\n\n    function buyRep(uint256 _amount) public payable {\n        uint256 repAmount = _amount.mul(3);\n        profiles[msg.sender].uRep.repToGive.add(repAmount);\n        burn( _amount);\n    }\n\n    //  can only give a max of 3 to one account\n    //\n    function giveRep( address _user, uint256 _amount, string memory _message) public payable {\n        userRep storage sender = profiles[msg.sender].uRep;\n        Profile storage user = profiles[_user];\n        require(sender.repToGive >= _amount &&_amount <= 3 &&user.leftRep[msg.sender] == false);\n        rep memory _rep;\n        _rep.user = msg.sender;\n        _rep.message = _message;\n        _rep.amount = _amount;\n        user.leftRep[msg.sender] = true;\n        user.rep.add(_amount);\n        sender.repToGive.sub(_amount);\n    }\n\n    function negRep(address _user, uint256 _amount, string memory _message) public payable {\n        userRep storage sender = profiles[msg.sender].uRep;\n        Profile storage user = profiles[_user];\n        require(sender.repToGive >= _amount && _amount <= 3 &&user.leftRep[msg.sender] == false);\n        rep memory _rep;\n        _rep.user = msg.sender;\n        _rep.message = _message;\n        _rep.amount = _amount;\n        user.leftRep[msg.sender] = true;\n        user.rep.sub(_amount);\n        sender.repToGive.sub(_amount);\n    }\n\n    //------------------------------------------------------------------------------------------------------------\n    //----------------------------------------------------------------------------------------------------------\n\n    function createAccount(string memory _name, string memory _description,\n                           string memory _location) public payable {\n        //       bool status = profiles[msg.sender].status;\n        //      if (status) {revert();}\n        profiles[msg.sender].status = true;\n        profiles[msg.sender].name = _name;\n        profiles[msg.sender].description = _description;\n        profiles[msg.sender].location = _location;\n    }\n\n    function myProfile()public view returns (string memory name, string memory description,\n                                             string memory location, address add){\n        string memory name = profiles[msg.sender].name;\n        string memory description = profiles[msg.sender].description;\n        string memory location = profiles[msg.sender].location;\n        address add = msg.sender;\n        return (name, description, location, add);\n    }\n\n    //    function respond(uint _incidentID)public payable{}\n\n    //----------------------------------------------------------------------------------------------------------\n    //---------------------------------------------------------------------------------------------------------\n    //\n    // RANKS   1) PRIVATE\n    //            only has messaging\n    //         2) CORPORAL\n    //            x2 vote weight\n    //         3) SERGEANT\n    //            x3 vote weight\n    //         4) LIEUTENANT\n    //            x4 vote weight\n    //         5) CAPTAIN\n    //            x5 vote weight\n    //         6) COMMODORE\n    //            x6 vote weight\n    //            rank of COMMODORE is only available by confirmation by ADMIRAL\n    //            COMMODORE can promote or demote by one RANKS\n    //            any user that is LIEUTENANT and lower\n    //         7) ADMIRAL\n    //            x7 vote weight\n    //            ADMIRAL can promote or demote any user by 1 rank\n    //            All users can only be promoted once\n    //            ADMIRAL has full veto over all process of the DAO funds\n    //            to prevent abuse\n\n    modifier aboveLevel(uint256 _rank) {\n        require(profiles[msg.sender].rank >= _rank);\n        _;\n    }\n\n    function levelUp(address _user) public payable {\n        profiles[_user].rank = profiles[_user].rank.add(1);\n    }\n\n    function promote(address _user) public payable aboveLevel(6) {\n        if (profiles[msg.sender].rank == 6) {\n            if (profiles[_user].rank <= 4) {\n                levelUp(_user);\n            } else {\n                emit promoted(_user);\n            }\n        } else {\n            if (profiles[_user].rank <= 4) {\n                levelUp(_user);\n            } else {\n                emit promoted(_user);\n            }\n        }\n    }\n\n    //   function getThisUser() returns (Profile){\n    //       return profiles[msg.sender];\n    //   function getUsers() public\n}\n\n//   function demote(){\n\n//   }\n\n//  require rank of ADMIRAL 7\n//    function fire(){\n\n//    }\n",
  "sourcePath": "/home/a/Documents/d/dapp1/mainDapp/contracts/Incidents.sol",
  "compiler": {
    "name": "solc",
    "version": "0.5.0+commit.1d4f565a.Emscripten.clang"
  },
  "schemaVersion": "3.2.0",
  "updatedAt": "2020-09-14T16:34:56.938Z",
  "devdoc": {
    "methods": {
      "burnFrom(address,uint256)": {
        "params": {
          "_from": "the address of the sender",
          "_value": "the amount of money to burn"
        }
      },
      "decimals()": {
        "return": "the number of decimals of the token."
      },
      "symbol()": {
        "return": "the symbol of the token."
      }
    }
  },
  "userdoc": {
    "methods": {
      "burn(uint256)": {
        "notice": "/ function transferAnyERC20Token(address tokenAddress, uint tokens) public onlyOwner returns (bool success) {"
      },
      "burnFrom(address,uint256)": {
        "notice": "Destroy tokens from other account     * Remove `_value` tokens from the system irreversibly on behalf of `_from`."
      }
    },
    "notice": "todo import safemath from node modules"
  }
}