{
  "contractName": "Token",
  "abi": [
    {
      "constant": true,
      "inputs": [],
      "name": "INITIAL_SUPPLY",
      "outputs": [
        {
          "name": "",
          "type": "uint256"
        }
      ],
      "payable": false,
      "stateMutability": "view",
      "type": "function"
    },
    {
      "constant": true,
      "inputs": [],
      "name": "_decimals",
      "outputs": [
        {
          "name": "",
          "type": "uint256"
        }
      ],
      "payable": false,
      "stateMutability": "view",
      "type": "function"
    },
    {
      "constant": true,
      "inputs": [],
      "name": "_totalSupply",
      "outputs": [
        {
          "name": "",
          "type": "uint256"
        }
      ],
      "payable": false,
      "stateMutability": "view",
      "type": "function"
    },
    {
      "constant": true,
      "inputs": [],
      "name": "_symbol",
      "outputs": [
        {
          "name": "",
          "type": "string"
        }
      ],
      "payable": false,
      "stateMutability": "view",
      "type": "function"
    },
    {
      "constant": true,
      "inputs": [],
      "name": "_name",
      "outputs": [
        {
          "name": "",
          "type": "string"
        }
      ],
      "payable": false,
      "stateMutability": "view",
      "type": "function"
    },
    {
      "inputs": [],
      "payable": false,
      "stateMutability": "nonpayable",
      "type": "constructor"
    },
    {
      "anonymous": false,
      "inputs": [
        {
          "indexed": true,
          "name": "from",
          "type": "address"
        },
        {
          "indexed": true,
          "name": "to",
          "type": "address"
        },
        {
          "indexed": false,
          "name": "tokens",
          "type": "uint256"
        }
      ],
      "name": "Transfer",
      "type": "event"
    },
    {
      "anonymous": false,
      "inputs": [
        {
          "indexed": true,
          "name": "tokenOwner",
          "type": "address"
        },
        {
          "indexed": true,
          "name": "spender",
          "type": "address"
        },
        {
          "indexed": false,
          "name": "tokens",
          "type": "uint256"
        }
      ],
      "name": "Approval",
      "type": "event"
    },
    {
      "constant": true,
      "inputs": [],
      "name": "name",
      "outputs": [
        {
          "name": "",
          "type": "string"
        }
      ],
      "payable": false,
      "stateMutability": "view",
      "type": "function"
    },
    {
      "constant": true,
      "inputs": [],
      "name": "symbol",
      "outputs": [
        {
          "name": "",
          "type": "string"
        }
      ],
      "payable": false,
      "stateMutability": "view",
      "type": "function"
    },
    {
      "constant": true,
      "inputs": [],
      "name": "decimals",
      "outputs": [
        {
          "name": "",
          "type": "uint256"
        }
      ],
      "payable": false,
      "stateMutability": "view",
      "type": "function"
    },
    {
      "constant": true,
      "inputs": [],
      "name": "totalSupply",
      "outputs": [
        {
          "name": "",
          "type": "uint256"
        }
      ],
      "payable": false,
      "stateMutability": "view",
      "type": "function"
    },
    {
      "constant": true,
      "inputs": [
        {
          "name": "tokenOwner",
          "type": "address"
        }
      ],
      "name": "balanceOf",
      "outputs": [
        {
          "name": "balance",
          "type": "uint256"
        }
      ],
      "payable": false,
      "stateMutability": "view",
      "type": "function"
    },
    {
      "constant": false,
      "inputs": [
        {
          "name": "to",
          "type": "address"
        },
        {
          "name": "tokens",
          "type": "uint256"
        }
      ],
      "name": "transfer",
      "outputs": [
        {
          "name": "success",
          "type": "bool"
        }
      ],
      "payable": false,
      "stateMutability": "nonpayable",
      "type": "function"
    },
    {
      "constant": false,
      "inputs": [
        {
          "name": "spender",
          "type": "address"
        },
        {
          "name": "tokens",
          "type": "uint256"
        }
      ],
      "name": "approve",
      "outputs": [
        {
          "name": "success",
          "type": "bool"
        }
      ],
      "payable": false,
      "stateMutability": "nonpayable",
      "type": "function"
    },
    {
      "constant": false,
      "inputs": [
        {
          "name": "from",
          "type": "address"
        },
        {
          "name": "to",
          "type": "address"
        },
        {
          "name": "tokens",
          "type": "uint256"
        }
      ],
      "name": "transferFrom",
      "outputs": [
        {
          "name": "success",
          "type": "bool"
        }
      ],
      "payable": false,
      "stateMutability": "nonpayable",
      "type": "function"
    },
    {
      "constant": true,
      "inputs": [
        {
          "name": "tokenOwner",
          "type": "address"
        },
        {
          "name": "spender",
          "type": "address"
        }
      ],
      "name": "allowance",
      "outputs": [
        {
          "name": "remaining",
          "type": "uint256"
        }
      ],
      "payable": false,
      "stateMutability": "view",
      "type": "function"
    },
    {
      "constant": false,
      "inputs": [
        {
          "name": "_value",
          "type": "uint256"
        }
      ],
      "name": "burn",
      "outputs": [
        {
          "name": "success",
          "type": "bool"
        }
      ],
      "payable": false,
      "stateMutability": "nonpayable",
      "type": "function"
    },
    {
      "constant": false,
      "inputs": [
        {
          "name": "_from",
          "type": "address"
        },
        {
          "name": "_value",
          "type": "uint256"
        }
      ],
      "name": "burnFrom",
      "outputs": [
        {
          "name": "success",
          "type": "bool"
        }
      ],
      "payable": false,
      "stateMutability": "nonpayable",
      "type": "function"
    },
    {
      "constant": false,
      "inputs": [
        {
          "name": "_to",
          "type": "address"
        },
        {
          "name": "am",
          "type": "uint256"
        }
      ],
      "name": "mint",
      "outputs": [
        {
          "name": "success",
          "type": "bool"
        }
      ],
      "payable": false,
      "stateMutability": "nonpayable",
      "type": "function"
    }
  ],
  "bytecode": "0x608060405234801561001057600080fd5b5060008054600160a060020a0319163317905560408051808201909152601a8082527f536f6369616c20446566656e636520466f72636520546f6b656e000000000000602090920191825261006791600291610123565b506040805180820190915260048082527f534446540000000000000000000000000000000000000000000000000000000060209092019182526100ac91600191610123565b50601260035569d3c21bcecceda10000006005819055600481905560008054600160a060020a0390811682526006602090815260408084208590558354815195865290519216937fddf252ad1be2c89b69c2b068fc378daa952ba7f163c4a11628f55a4df523b3ef929081900390910190a36101be565b828054600181600116156101000203166002900490600052602060002090601f016020900481019282601f1061016457805160ff1916838001178555610191565b82800160010185558215610191579182015b82811115610191578251825591602001919060010190610176565b5061019d9291506101a1565b5090565b6101bb91905b8082111561019d57600081556001016101a7565b90565b6109f3806101cd6000396000f3fe6080604052600436106100f05763ffffffff7c010000000000000000000000000000000000000000000000000000000060003504166306fdde0381146100f5578063095ea7b31461017f57806318160ddd146101cc57806323b872dd146101f35780632ff2e9dc14610236578063313ce5671461024b57806332424aa3146102605780633eaaf86b1461027557806340c10f191461028a57806342966c68146102c357806370a08231146102ed57806379cc67901461032057806395d89b4114610359578063a9059cbb1461036e578063b09f1266146103a7578063d28d8852146103bc578063dd62ed3e146103d1575b600080fd5b34801561010157600080fd5b5061010a61040c565b6040805160208082528351818301528351919283929083019185019080838360005b8381101561014457818101518382015260200161012c565b50505050905090810190601f1680156101715780820380516001836020036101000a031916815260200191505b509250505060405180910390f35b34801561018b57600080fd5b506101b8600480360360408110156101a257600080fd5b50600160a060020a03813516906020013561049f565b604080519115158252519081900360200190f35b3480156101d857600080fd5b506101e1610506565b60408051918252519081900360200190f35b3480156101ff57600080fd5b506101b86004803603606081101561021657600080fd5b50600160a060020a0381358116916020810135909116906040013561050c565b34801561024257600080fd5b506101e1610617565b34801561025757600080fd5b506101e161061d565b34801561026c57600080fd5b506101e1610623565b34801561028157600080fd5b506101e1610629565b34801561029657600080fd5b506101b8600480360360408110156102ad57600080fd5b50600160a060020a03813516906020013561062f565b3480156102cf57600080fd5b506101b8600480360360208110156102e657600080fd5b50356106b9565b3480156102f957600080fd5b506101e16004803603602081101561031057600080fd5b5035600160a060020a03166106fb565b34801561032c57600080fd5b506101b86004803603604081101561034357600080fd5b50600160a060020a038135169060200135610716565b34801561036557600080fd5b5061010a610782565b34801561037a57600080fd5b506101b86004803603604081101561039157600080fd5b50600160a060020a0381351690602001356107e2565b3480156103b357600080fd5b5061010a610892565b3480156103c857600080fd5b5061010a61091f565b3480156103dd57600080fd5b506101e1600480360360408110156103f457600080fd5b50600160a060020a0381358116916020013516610977565b60028054604080516020601f60001961010060018716150201909416859004938401819004810282018101909252828152606093909290918301828280156104955780601f1061046a57610100808354040283529160200191610495565b820191906000526020600020905b81548152906001019060200180831161047857829003601f168201915b5050505050905090565b336000818152600760209081526040808320600160a060020a038716808552908352818420869055815186815291519394909390927f8c5be1e5ebec7d5bd14f71427d1e84f3dd0314c0f7b2291e5b200ac8c7c3b925928290030190a35060015b92915050565b60045490565b600160a060020a038316600090815260066020526040812054610535908363ffffffff6109a216565b600160a060020a0385166000908152600660209081526040808320939093556007815282822033835290522054610572908363ffffffff6109a216565b600160a060020a0380861660009081526007602090815260408083203384528252808320949094559186168152600690915220546105b6908363ffffffff6109b716565b600160a060020a0380851660008181526006602090815260409182902094909455805186815290519193928816927fddf252ad1be2c89b69c2b068fc378daa952ba7f163c4a11628f55a4df523b3ef92918290030190a35060019392505050565b60055481565b60035490565b60035481565b60045481565b60008054600160a060020a0316331461064757600080fd5b60035460048054600a9290920a84029182019055600160a060020a0384166000818152600660209081526040918290208054870190558151848152915130927fddf252ad1be2c89b69c2b068fc378daa952ba7f163c4a11628f55a4df523b3ef92908290030190a35060019392505050565b336000908152600660205260408120548211156106d557600080fd5b503360009081526006602052604090208054829003905560048054919091039055600190565b600160a060020a031660009081526006602052604090205490565b600160a060020a03821660009081526006602052604081205482111561073b57600080fd5b6107458333610977565b82111561075157600080fd5b50600160a060020a038216600090815260066020526040902080548290039055600480548290039055600192915050565b60018054604080516020601f600260001961010087891615020190951694909404938401819004810282018101909252828152606093909290918301828280156104955780601f1061046a57610100808354040283529160200191610495565b33600090815260066020526040812054610802908363ffffffff6109a216565b3360009081526006602052604080822092909255600160a060020a03851681522054610834908363ffffffff6109b716565b600160a060020a0384166000818152600660209081526040918290209390935580518581529051919233927fddf252ad1be2c89b69c2b068fc378daa952ba7f163c4a11628f55a4df523b3ef9281900390910190a350600192915050565b60018054604080516020600284861615610100026000190190941693909304601f810184900484028201840190925281815292918301828280156109175780601f106108ec57610100808354040283529160200191610917565b820191906000526020600020905b8154815290600101906020018083116108fa57829003601f168201915b505050505081565b6002805460408051602060018416156101000260001901909316849004601f810184900484028201840190925281815292918301828280156109175780601f106108ec57610100808354040283529160200191610917565b600160a060020a03918216600090815260076020908152604080832093909416825291909152205490565b6000828211156109b157600080fd5b50900390565b8181018281101561050057600080fdfea165627a7a72305820abebefd1fac3a3dcb1823d343141d65805ae7cd9cb121898d52f0f63f715b9e70029",
  "source": "pragma solidity ^0.5.0;\nimport \"./SafeMath.sol\";\nimport \"./IERC20.sol\";\nimport \"./Owned.sol\";\n// ----------------------------------------------------------------------------\n//\n// Symbol      : SDFT\n// Name        : Social Defense Force Token\n// Total supply: 0 at the time of initialization\n// Decimals    : 18\n// ----------------------------------------------------------------------------\n\n// ----------------------------------------------------------------------------\n// ERC Token Standard #20 Interface\n// https://github.com/ethereum/EIPs/blob/master/EIPS/eip-20-token-standard.md\n// ----------------------------------------------------------------------------\n\n// ----------------------------------------------------------------------------\n// Owned contract\n// ----------------------------------------------------------------------------\n\n// ----------------------------------------------------------------------------\n// ERC20 Token, with the addition of symbol, name and decimals and an\n// initial fixed supply\n// ----------------------------------------------------------------------------\ncontract Token is IERC20, Owned {\n\n    using SafeMath for uint;\n    string  public _symbol;\n    string  public  _name;\n    uint public _decimals;\n    uint public _totalSupply;\n    uint public INITIAL_SUPPLY;\n    mapping(address => uint) balances;\n    mapping(address => mapping(address => uint)) allowed;\n\n    // ------------------------------------------------------------------------\n    // Constructor\n    // ------------------------------------------------------------------------\n\n    constructor () public {\n        _name     = \"Social Defence Force Token\"; // solium-disable-line uppercase\n        _symbol   = \"SDFT\"; // solium-disable-line uppercase\n        _decimals = 18; // solium-disable-line uppercase\n        INITIAL_SUPPLY = 1000000 * (10 ** uint(_decimals));\n        _totalSupply = INITIAL_SUPPLY;\n        balances[owner] = _totalSupply;\n        emit Transfer(address(0), owner, _totalSupply);\n    }\n\n    function name() public view returns (string memory) {\n        return _name;\n    }\n\n    /**\n     * @return the symbol of the token.\n     */\n    function symbol() public view returns (string memory) {\n        return _symbol;\n    }\n\n    /**\n     * @return the number of decimals of the token.\n     */\n    function decimals() public view returns (uint) {\n        return _decimals;\n    }\n\n    // ------------------------------------------------------------------------\n    // Total supply\n    // ------------------------------------------------------------------------\n\n    function totalSupply() public view returns (uint) {\n\n        return _totalSupply;\n    }\n\n    function balanceOf(address tokenOwner) public view returns (uint balance) {\n\n        return balances[tokenOwner];\n    }\n\n    // ------------------------------------------------------------------------\n    // Transfer the balance from token owner's account to `to` account\n    // - Owner's account must have sufficient balance to transfer\n    // - 0 value transfers are allowed\n    // ------------------------------------------------------------------------\n\n    function transfer(address to, uint tokens) public returns (bool success) {\n\n        balances[msg.sender] = balances[msg.sender].sub(tokens);\n        balances[to] = balances[to].add(tokens);\n        emit Transfer(msg.sender, to, tokens);\n        return true;\n    }\n\n    // ------------------------------------------------------------------------\n    // Token owner can approve for `spender` to transferFrom(...) `tokens`\n    // from the token owner's account\n    //\n    // https://github.com/ethereum/EIPs/blob/master/EIPS/eip-20-token-standard.md\n    // recommends that there are no checks for the approval double-spend attack\n    // as this should be implemented in user interfaces \n    // ------------------------------------------------------------------------\n\n    function approve(address spender, uint tokens) public returns (bool success) {\n\n        allowed[msg.sender][spender] = tokens;\n        emit Approval(msg.sender, spender, tokens);\n        return true;\n    }\n\n    // ------------------------------------------------------------------------\n    // Transfer `tokens` from the `from` account to the `to` account\n    // \n    // The calling account must already have sufficient tokens approve(...)-d\n    // for spending from the `from` account and\n    // - From account must have sufficient balance to transfer\n    // - Spender must have sufficient allowance to transfer\n    // - 0 value transfers are allowed\n    // ------------------------------------------------------------------------\n\n    function transferFrom(address from, address to, uint tokens) public returns (bool success) {\n\n        balances[from] = balances[from].sub(tokens);\n        allowed[from][msg.sender] = allowed[from][msg.sender].sub(tokens);\n        balances[to] = balances[to].add(tokens);\n        emit Transfer(from, to, tokens);\n        return true;\n    }\n\n    // ------------------------------------------------------------------------\n    // Returns the amount of tokens approved by the owner that can be\n    // transferred to the spender's account\n    // ------------------------------------------------------------------------\n\n    function allowance(address tokenOwner, address spender) public view returns (uint remaining) {\n\n        return allowed[tokenOwner][spender];\n    }\n\n    // ------------------------------------------------------------------------\n    // Owner can withdraw ether if token received.\n    // ------------------------------------------------------------------------\n//    function withdraw() public onlyOwner returns (bool result) {\n        \n//        return owner.transfer(address(this).balance);\n        \n//    }\n    \n    // ------------------------------------------------------------------------\n    // Owner can transfer out any accidentally sent ERC20 tokens\n    // ------------------------------------------------------------------------\n\n   //// function transferAnyERC20Token(address tokenAddress, uint tokens) public onlyOwner returns (bool success) {\n\n //       return IERC20(tokenAddress).transfer(owner, tokens);\n\n //   }\n\n    function burn(uint _value) public returns (bool success) {\n        require(balances[msg.sender] >= _value);   // Check if the sender has enough\n        balances[msg.sender] -= _value;            // Subtract from the sender\n        _totalSupply -= _value;                      // Updates totalSupply\n        //emit Burn(msg.sender, _value);\n        return true;\n    }\n\n    /**\n\n     * Destroy tokens from other account\n     *\n     * Remove `_value` tokens from the system irreversibly on behalf of `_from`.\n     *\n     * @param _from the address of the sender\n     * @param _value the amount of money to burn\n     */\n    function burnFrom(address _from, uint256 _value) public returns (bool success) {\n        require(balances[_from] >= _value);                // Check if the targeted balance is enough\n        require(_value <= allowance(_from, msg.sender));   // Check allowance\n        balances[_from] -= _value;                         // Subtract from the targeted balance\n      //  allowance(_from, msg.sender) -= _value;            // Subtract from the sender's allowance\n        _totalSupply -= _value;                            // Update totalSupply\n       // emit Burn(_from, _value);\n        return true;\n    }\n\n    function mint(address _to, uint am) public onlyOwner returns (bool success){\n          // uint am  = amo * 10 ** uint(_decimals);\n           //uint f = am * 18;\n           uint amo = am * (10 ** uint(_decimals));\n           _totalSupply = _totalSupply+amo;\n           balances[_to] = balances[_to]+ am;\n         //  emit Transfer(0x0, _to, am);\n           emit Transfer(address(this), _to, amo);\n           return true;\n       }\n}\n\n//-------------------------------------------------------------------------------------------",
  "sourcePath": "/home/a/Documents/d/dapp1/mainDapp/contracts/Token.sol",
  "compiler": {
    "name": "solc",
    "version": "0.5.0+commit.1d4f565a.Emscripten.clang"
  },
  "schemaVersion": "3.2.0",
  "updatedAt": "2020-07-24T00:10:34.636Z",
  "networkType": "ethereum",
  "devdoc": {
    "methods": {
      "burnFrom(address,uint256)": {
        "params": {
          "_from": "the address of the sender",
          "_value": "the amount of money to burn"
        }
      },
      "decimals()": {
        "return": "the number of decimals of the token."
      },
      "symbol()": {
        "return": "the symbol of the token."
      }
    }
  },
  "userdoc": {
    "methods": {
      "burn(uint256)": {
        "notice": "/ function transferAnyERC20Token(address tokenAddress, uint tokens) public onlyOwner returns (bool success) {"
      },
      "burnFrom(address,uint256)": {
        "notice": "Destroy tokens from other account     * Remove `_value` tokens from the system irreversibly on behalf of `_from`."
      }
    }
  }
}